{
  "contractName": "NobelMain",
  "abi": [
    {
      "inputs": [
        {
          "internalType": "address",
          "name": "_litter",
          "type": "address"
        },
        {
          "internalType": "uint256",
          "name": "_initial_supply",
          "type": "uint256"
        },
        {
          "internalType": "uint256",
          "name": "_minting_allowance_per_call",
          "type": "uint256"
        },
        {
          "internalType": "uint256",
          "name": "_cool_down_time_per_mint",
          "type": "uint256"
        }
      ],
      "stateMutability": "nonpayable",
      "type": "constructor"
    },
    {
      "anonymous": false,
      "inputs": [
        {
          "indexed": true,
          "internalType": "address",
          "name": "previousOwner",
          "type": "address"
        },
        {
          "indexed": true,
          "internalType": "address",
          "name": "newOwner",
          "type": "address"
        }
      ],
      "name": "OwnershipTransferred",
      "type": "event"
    },
    {
      "stateMutability": "nonpayable",
      "type": "fallback"
    },
    {
      "inputs": [
        {
          "internalType": "address",
          "name": "",
          "type": "address"
        }
      ],
      "name": "isRegistered",
      "outputs": [
        {
          "internalType": "uint8",
          "name": "",
          "type": "uint8"
        }
      ],
      "stateMutability": "view",
      "type": "function"
    },
    {
      "inputs": [],
      "name": "owner",
      "outputs": [
        {
          "internalType": "address",
          "name": "",
          "type": "address"
        }
      ],
      "stateMutability": "view",
      "type": "function"
    },
    {
      "inputs": [],
      "name": "renounceOwnership",
      "outputs": [],
      "stateMutability": "nonpayable",
      "type": "function"
    },
    {
      "inputs": [
        {
          "internalType": "address",
          "name": "newOwner",
          "type": "address"
        }
      ],
      "name": "transferOwnership",
      "outputs": [],
      "stateMutability": "nonpayable",
      "type": "function"
    },
    {
      "inputs": [
        {
          "internalType": "address",
          "name": "",
          "type": "address"
        }
      ],
      "name": "user_address_to_user_name",
      "outputs": [
        {
          "internalType": "string",
          "name": "",
          "type": "string"
        }
      ],
      "stateMutability": "view",
      "type": "function"
    },
    {
      "inputs": [
        {
          "internalType": "string",
          "name": "_user_name",
          "type": "string"
        }
      ],
      "name": "registerUser",
      "outputs": [],
      "stateMutability": "nonpayable",
      "type": "function"
    },
    {
      "inputs": [
        {
          "internalType": "string",
          "name": "_litterUri",
          "type": "string"
        },
        {
          "internalType": "string",
          "name": "_caption",
          "type": "string"
        }
      ],
      "name": "createNobelLitter",
      "outputs": [],
      "stateMutability": "nonpayable",
      "type": "function"
    },
    {
      "inputs": [],
      "name": "getLittersContractAddress",
      "outputs": [
        {
          "internalType": "address",
          "name": "litter_",
          "type": "address"
        }
      ],
      "stateMutability": "view",
      "type": "function"
    },
    {
      "inputs": [],
      "name": "getNobelsContractAddress",
      "outputs": [
        {
          "internalType": "address",
          "name": "nobel_",
          "type": "address"
        }
      ],
      "stateMutability": "view",
      "type": "function"
    },
    {
      "inputs": [
        {
          "internalType": "address",
          "name": "_checker",
          "type": "address"
        }
      ],
      "name": "getBalanceOfLitter",
      "outputs": [
        {
          "internalType": "uint256",
          "name": "balance_",
          "type": "uint256"
        }
      ],
      "stateMutability": "view",
      "type": "function"
    },
    {
      "inputs": [
        {
          "internalType": "address",
          "name": "_checker",
          "type": "address"
        }
      ],
      "name": "getBalanceOfNobels",
      "outputs": [
        {
          "internalType": "uint256",
          "name": "balance_",
          "type": "uint256"
        }
      ],
      "stateMutability": "view",
      "type": "function"
    }
  ],
  "bytecode": "0x60806040523480156200001157600080fd5b5060405162005358380380620053588339818101604052810190620000379190620001f3565b600062000049620001af60201b60201c565b9050806000806101000a81548173ffffffffffffffffffffffffffffffffffffffff021916908373ffffffffffffffffffffffffffffffffffffffff1602179055508073ffffffffffffffffffffffffffffffffffffffff16600073ffffffffffffffffffffffffffffffffffffffff167f8be0079c531659141344cd1fd0a4f28419497f9722a3daafe3b4186f6b6457e060405160405180910390a35083600360006101000a81548173ffffffffffffffffffffffffffffffffffffffff021916908373ffffffffffffffffffffffffffffffffffffffff1602179055508282826040516200013990620001b7565b620001479392919062000270565b604051809103906000f08015801562000164573d6000803e3d6000fd5b50600460006101000a81548173ffffffffffffffffffffffffffffffffffffffff021916908373ffffffffffffffffffffffffffffffffffffffff160217905550505050506200031f565b600033905090565b613d49806200160f83390190565b600081519050620001d681620002eb565b92915050565b600081519050620001ed8162000305565b92915050565b600080600080608085870312156200020a57600080fd5b60006200021a87828801620001c5565b94505060206200022d87828801620001dc565b93505060406200024087828801620001dc565b92505060606200025387828801620001dc565b91505092959194509250565b6200026a81620002e1565b82525050565b60006060820190506200028760008301866200025f565b6200029660208301856200025f565b620002a560408301846200025f565b949350505050565b6000620002ba82620002c1565b9050919050565b600073ffffffffffffffffffffffffffffffffffffffff82169050919050565b6000819050919050565b620002f681620002ad565b81146200030257600080fd5b50565b6200031081620002e1565b81146200031c57600080fd5b50565b6112e0806200032f6000396000f3fe608060405234801561001057600080fd5b50600436106100ad5760003560e01c806378a65fb11161007157806378a65fb1146101455780638da5cb5b14610175578063c3c5a54714610193578063e968095f146101c3578063f2fde38b146101f3578063f483cdf01461020f576100ae565b8063331c62f8146100b357806337892ab1146100d15780636a1f94b114610101578063704f1b941461011f578063715018a61461013b576100ae565b5b600080fd5b6100bb61022b565b6040516100c89190610e5f565b60405180910390f35b6100eb60048036038101906100e69190610c45565b610255565b6040516100f89190610ee8565b60405180910390f35b6101096102f5565b6040516101169190610e5f565b60405180910390f35b61013960048036038101906101349190610c97565b61031f565b005b610143610462565b005b61015f600480360381019061015a9190610c45565b61059c565b60405161016c9190610f8a565b60405180910390f35b61017d610650565b60405161018a9190610e5f565b60405180910390f35b6101ad60048036038101906101a89190610c45565b610679565b6040516101ba9190610fa5565b60405180910390f35b6101dd60048036038101906101d89190610c45565b610699565b6040516101ea9190610f8a565b60405180910390f35b61020d60048036038101906102089190610c45565b61074d565b005b61022960048036038101906102249190610cd8565b6108f6565b005b6000600360009054906101000a900473ffffffffffffffffffffffffffffffffffffffff16905090565b60016020528060005260406000206000915090508054610274906110c9565b80601f01602080910402602001604051908101604052809291908181526020018280546102a0906110c9565b80156102ed5780601f106102c2576101008083540402835291602001916102ed565b820191906000526020600020905b8154815290600101906020018083116102d057829003601f168201915b505050505081565b6000600460009054906101000a900473ffffffffffffffffffffffffffffffffffffffff16905090565b6001600260003373ffffffffffffffffffffffffffffffffffffffff1673ffffffffffffffffffffffffffffffffffffffff16815260200190815260200160002060009054906101000a900460ff1660ff1614156103b2576040517f08c379a00000000000000000000000000000000000000000000000000000000081526004016103a990610f6a565b60405180910390fd5b80600160003373ffffffffffffffffffffffffffffffffffffffff1673ffffffffffffffffffffffffffffffffffffffff1681526020019081526020016000209080519060200190610405929190610afb565b506001600260003373ffffffffffffffffffffffffffffffffffffffff1673ffffffffffffffffffffffffffffffffffffffff16815260200190815260200160002060006101000a81548160ff021916908360ff16021790555050565b61046a610af3565b73ffffffffffffffffffffffffffffffffffffffff16610488610650565b73ffffffffffffffffffffffffffffffffffffffff16146104de576040517f08c379a00000000000000000000000000000000000000000000000000000000081526004016104d590610f4a565b60405180910390fd5b600073ffffffffffffffffffffffffffffffffffffffff1660008054906101000a900473ffffffffffffffffffffffffffffffffffffffff1673ffffffffffffffffffffffffffffffffffffffff167f8be0079c531659141344cd1fd0a4f28419497f9722a3daafe3b4186f6b6457e060405160405180910390a360008060006101000a81548173ffffffffffffffffffffffffffffffffffffffff021916908373ffffffffffffffffffffffffffffffffffffffff160217905550565b6000600460009054906101000a900473ffffffffffffffffffffffffffffffffffffffff1673ffffffffffffffffffffffffffffffffffffffff166370a08231836040518263ffffffff1660e01b81526004016105f99190610e5f565b60206040518083038186803b15801561061157600080fd5b505afa158015610625573d6000803e3d6000fd5b505050506040513d601f19601f820116820180604052508101906106499190610d44565b9050919050565b60008060009054906101000a900473ffffffffffffffffffffffffffffffffffffffff16905090565b60026020528060005260406000206000915054906101000a900460ff1681565b6000600360009054906101000a900473ffffffffffffffffffffffffffffffffffffffff1673ffffffffffffffffffffffffffffffffffffffff166370a08231836040518263ffffffff1660e01b81526004016106f69190610e5f565b60206040518083038186803b15801561070e57600080fd5b505afa158015610722573d6000803e3d6000fd5b505050506040513d601f19601f820116820180604052508101906107469190610d44565b9050919050565b610755610af3565b73ffffffffffffffffffffffffffffffffffffffff16610773610650565b73ffffffffffffffffffffffffffffffffffffffff16146107c9576040517f08c379a00000000000000000000000000000000000000000000000000000000081526004016107c090610f4a565b60405180910390fd5b600073ffffffffffffffffffffffffffffffffffffffff168173ffffffffffffffffffffffffffffffffffffffff161415610839576040517f08c379a000000000000000000000000000000000000000000000000000000000815260040161083090610f0a565b60405180910390fd5b8073ffffffffffffffffffffffffffffffffffffffff1660008054906101000a900473ffffffffffffffffffffffffffffffffffffffff1673ffffffffffffffffffffffffffffffffffffffff167f8be0079c531659141344cd1fd0a4f28419497f9722a3daafe3b4186f6b6457e060405160405180910390a3806000806101000a81548173ffffffffffffffffffffffffffffffffffffffff021916908373ffffffffffffffffffffffffffffffffffffffff16021790555050565b6000600260003373ffffffffffffffffffffffffffffffffffffffff1673ffffffffffffffffffffffffffffffffffffffff16815260200190815260200160002060009054906101000a900460ff1660ff161415610989576040517f08c379a000000000000000000000000000000000000000000000000000000000815260040161098090610f2a565b60405180910390fd5b6000600360009054906101000a900473ffffffffffffffffffffffffffffffffffffffff1673ffffffffffffffffffffffffffffffffffffffff16630b564a7c3385856040518463ffffffff1660e01b81526004016109ea93929190610e7a565b602060405180830381600087803b158015610a0457600080fd5b505af1158015610a18573d6000803e3d6000fd5b505050506040513d601f19601f82011682018060405250810190610a3c9190610d44565b9050600460009054906101000a900473ffffffffffffffffffffffffffffffffffffffff1673ffffffffffffffffffffffffffffffffffffffff1663a9059cbb33836040518363ffffffff1660e01b8152600401610a9b929190610ebf565b602060405180830381600087803b158015610ab557600080fd5b505af1158015610ac9573d6000803e3d6000fd5b505050506040513d601f19601f82011682018060405250810190610aed9190610c6e565b50505050565b600033905090565b828054610b07906110c9565b90600052602060002090601f016020900481019282610b295760008555610b70565b82601f10610b4257805160ff1916838001178555610b70565b82800160010185558215610b70579182015b82811115610b6f578251825591602001919060010190610b54565b5b509050610b7d9190610b81565b5090565b5b80821115610b9a576000816000905550600101610b82565b5090565b6000610bb1610bac84610fe5565b610fc0565b905082815260208101848484011115610bc957600080fd5b610bd4848285611087565b509392505050565b600081359050610beb81611265565b92915050565b600081519050610c008161127c565b92915050565b600082601f830112610c1757600080fd5b8135610c27848260208601610b9e565b91505092915050565b600081519050610c3f81611293565b92915050565b600060208284031215610c5757600080fd5b6000610c6584828501610bdc565b91505092915050565b600060208284031215610c8057600080fd5b6000610c8e84828501610bf1565b91505092915050565b600060208284031215610ca957600080fd5b600082013567ffffffffffffffff811115610cc357600080fd5b610ccf84828501610c06565b91505092915050565b60008060408385031215610ceb57600080fd5b600083013567ffffffffffffffff811115610d0557600080fd5b610d1185828601610c06565b925050602083013567ffffffffffffffff811115610d2e57600080fd5b610d3a85828601610c06565b9150509250929050565b600060208284031215610d5657600080fd5b6000610d6484828501610c30565b91505092915050565b610d7681611032565b82525050565b6000610d8782611016565b610d918185611021565b9350610da1818560208601611096565b610daa8161118a565b840191505092915050565b6000610dc2602683611021565b9150610dcd8261119b565b604082019050919050565b6000610de5601383611021565b9150610df0826111ea565b602082019050919050565b6000610e08602083611021565b9150610e1382611213565b602082019050919050565b6000610e2b601783611021565b9150610e368261123c565b602082019050919050565b610e4a81611070565b82525050565b610e598161107a565b82525050565b6000602082019050610e746000830184610d6d565b92915050565b6000606082019050610e8f6000830186610d6d565b8181036020830152610ea18185610d7c565b90508181036040830152610eb58184610d7c565b9050949350505050565b6000604082019050610ed46000830185610d6d565b610ee16020830184610e41565b9392505050565b60006020820190508181036000830152610f028184610d7c565b905092915050565b60006020820190508181036000830152610f2381610db5565b9050919050565b60006020820190508181036000830152610f4381610dd8565b9050919050565b60006020820190508181036000830152610f6381610dfb565b9050919050565b60006020820190508181036000830152610f8381610e1e565b9050919050565b6000602082019050610f9f6000830184610e41565b92915050565b6000602082019050610fba6000830184610e50565b92915050565b6000610fca610fdb565b9050610fd682826110fb565b919050565b6000604051905090565b600067ffffffffffffffff82111561100057610fff61115b565b5b6110098261118a565b9050602081019050919050565b600081519050919050565b600082825260208201905092915050565b600061103d82611050565b9050919050565b60008115159050919050565b600073ffffffffffffffffffffffffffffffffffffffff82169050919050565b6000819050919050565b600060ff82169050919050565b82818337600083830152505050565b60005b838110156110b4578082015181840152602081019050611099565b838111156110c3576000848401525b50505050565b600060028204905060018216806110e157607f821691505b602082108114156110f5576110f461112c565b5b50919050565b6111048261118a565b810181811067ffffffffffffffff821117156111235761112261115b565b5b80604052505050565b7f4e487b7100000000000000000000000000000000000000000000000000000000600052602260045260246000fd5b7f4e487b7100000000000000000000000000000000000000000000000000000000600052604160045260246000fd5b6000601f19601f8301169050919050565b7f4f776e61626c653a206e6577206f776e657220697320746865207a65726f206160008201527f6464726573730000000000000000000000000000000000000000000000000000602082015250565b7f55736572206e6f74205265676973746572656400000000000000000000000000600082015250565b7f4f776e61626c653a2063616c6c6572206973206e6f7420746865206f776e6572600082015250565b7f5573657220616c72656164792072656769737465726564000000000000000000600082015250565b61126e81611032565b811461127957600080fd5b50565b61128581611044565b811461129057600080fd5b50565b61129c81611070565b81146112a757600080fd5b5056fea26469706673582212203e2f0244bc2b1e97b8cdb02eedbd7f6fa6e23a5eac7754780b834c00f34f1a3864736f6c6343000803003360806040526127106008556143806009553480156200001d57600080fd5b5060405162003d4938038062003d49833981810160405281019062000043919062000744565b6040518060400160405280600b81526020017f4e6f62656c20546f6b656e0000000000000000000000000000000000000000008152506040518060400160405280600381526020017f4e4254000000000000000000000000000000000000000000000000000000000081525081818160059080519060200190620000c99291906200067d565b508060069080519060200190620000e29291906200067d565b5050506000600760006101000a81548160ff021916908315150217905550620001246000801b62000118620001d860201b60201c565b620001e060201b60201c565b620001657f9f2df0fed2c77648de5860a4cc508cd0818c85b8b8a1ab4ceeef8d981c8956a662000159620001d860201b60201c565b620001e060201b60201c565b620001a67f65d7a28e3265b37a6474929f336521b332c1681b933f6cb9f3376673440d862a6200019a620001d860201b60201c565b620001e060201b60201c565b5050816008819055508060098190555042600a81905550620001cf33846200022860201b60201c565b505050620009f8565b600033905090565b620001f782826200038e60201b62000f191760201c565b620002238160016000858152602001908152602001600020620003a460201b62000f271790919060201c565b505050565b600073ffffffffffffffffffffffffffffffffffffffff168273ffffffffffffffffffffffffffffffffffffffff1614156200029b576040517f08c379a00000000000000000000000000000000000000000000000000000000081526004016200029290620007f9565b60405180910390fd5b620002af60008383620003dc60201b60201c565b8060046000828254620002c391906200086b565b9250508190555080600260008473ffffffffffffffffffffffffffffffffffffffff1673ffffffffffffffffffffffffffffffffffffffff16815260200190815260200160002060008282546200031b91906200086b565b925050819055508173ffffffffffffffffffffffffffffffffffffffff16600073ffffffffffffffffffffffffffffffffffffffff167fddf252ad1be2c89b69c2b068fc378daa952ba7f163c4a11628f55a4df523b3ef836040516200038291906200083d565b60405180910390a35050565b620003a08282620003f960201b60201c565b5050565b6000620003d4836000018373ffffffffffffffffffffffffffffffffffffffff1660001b620004ea60201b60201c565b905092915050565b620003f48383836200056460201b62000f571760201c565b505050565b6200040b8282620005d460201b60201c565b620004e657600160008084815260200190815260200160002060000160008373ffffffffffffffffffffffffffffffffffffffff1673ffffffffffffffffffffffffffffffffffffffff16815260200190815260200160002060006101000a81548160ff0219169083151502179055506200048b620001d860201b60201c565b73ffffffffffffffffffffffffffffffffffffffff168173ffffffffffffffffffffffffffffffffffffffff16837f2f8788117e7eff1d82e926ec794901d17c78024a50270940304540a733656f0d60405160405180910390a45b5050565b6000620004fe83836200063e60201b60201c565b620005595782600001829080600181540180825580915050600190039060005260206000200160009091909190915055826000018054905083600101600084815260200190815260200160002081905550600190506200055e565b600090505b92915050565b6200057c8383836200066160201b62000faf1760201c565b6200058c6200066660201b60201c565b15620005cf576040517f08c379a0000000000000000000000000000000000000000000000000000000008152600401620005c6906200081b565b60405180910390fd5b505050565b600080600084815260200190815260200160002060000160008373ffffffffffffffffffffffffffffffffffffffff1673ffffffffffffffffffffffffffffffffffffffff16815260200190815260200160002060009054906101000a900460ff16905092915050565b600080836001016000848152602001908152602001600020541415905092915050565b505050565b6000600760009054906101000a900460ff16905090565b8280546200068b90620008d2565b90600052602060002090601f016020900481019282620006af5760008555620006fb565b82601f10620006ca57805160ff1916838001178555620006fb565b82800160010185558215620006fb579182015b82811115620006fa578251825591602001919060010190620006dd565b5b5090506200070a91906200070e565b5090565b5b80821115620007295760008160009055506001016200070f565b5090565b6000815190506200073e81620009de565b92915050565b6000806000606084860312156200075a57600080fd5b60006200076a868287016200072d565b93505060206200077d868287016200072d565b925050604062000790868287016200072d565b9150509250925092565b6000620007a9601f836200085a565b9150620007b68262000966565b602082019050919050565b6000620007d0602a836200085a565b9150620007dd826200098f565b604082019050919050565b620007f381620008c8565b82525050565b6000602082019050818103600083015262000814816200079a565b9050919050565b600060208201905081810360008301526200083681620007c1565b9050919050565b6000602082019050620008546000830184620007e8565b92915050565b600082825260208201905092915050565b60006200087882620008c8565b91506200088583620008c8565b9250827fffffffffffffffffffffffffffffffffffffffffffffffffffffffffffffffff03821115620008bd57620008bc62000908565b5b828201905092915050565b6000819050919050565b60006002820490506001821680620008eb57607f821691505b6020821081141562000902576200090162000937565b5b50919050565b7f4e487b7100000000000000000000000000000000000000000000000000000000600052601160045260246000fd5b7f4e487b7100000000000000000000000000000000000000000000000000000000600052602260045260246000fd5b7f45524332303a206d696e7420746f20746865207a65726f206164647265737300600082015250565b7f45524332305061757361626c653a20746f6b656e207472616e7366657220776860008201527f696c652070617573656400000000000000000000000000000000000000000000602082015250565b620009e981620008c8565b8114620009f557600080fd5b50565b6133418062000a086000396000f3fe608060405234801561001057600080fd5b50600436106101e95760003560e01c806379cc67901161010f578063a9059cbb116100a2578063d539139311610071578063d5391393146105ad578063d547741f146105cb578063dd62ed3e146105e7578063e63ab1e914610617576101ea565b8063a9059cbb14610511578063aecfe50514610541578063ca15c8731461055f578063d2cdaf381461058f576101ea565b806395d89b41116100de57806395d89b4114610487578063a217fddf146104a5578063a457c2d7146104c3578063a606fb59146104f3576101ea565b806379cc6790146104015780638456cb591461041d5780639010d07c1461042757806391d1485414610457576101ea565b8063313ce5671161018757806340c10f191161015657806340c10f191461037b57806342966c68146103975780635c975abb146103b357806370a08231146103d1576101ea565b8063313ce5671461030757806336568abe1461032557806339509351146103415780633f4ba83a14610371576101ea565b806318160ddd116101c357806318160ddd1461026d57806323b872dd1461028b578063248a9ca3146102bb5780632f2ff15d146102eb576101ea565b806301ffc9a7146101ef57806306fdde031461021f578063095ea7b31461023d576101ea565b5b600080fd5b610209600480360381019061020491906122a5565b610635565b60405161021691906126bb565b60405180910390f35b6102276106af565b60405161023491906126f1565b60405180910390f35b610257600480360381019061025291906121c8565b610741565b60405161026491906126bb565b60405180910390f35b61027561075f565b60405161028291906129f3565b60405180910390f35b6102a560048036038101906102a09190612179565b610769565b6040516102b291906126bb565b60405180910390f35b6102d560048036038101906102d09190612204565b61086a565b6040516102e291906126d6565b60405180910390f35b6103056004803603810190610300919061222d565b610889565b005b61030f6108bd565b60405161031c9190612a0e565b60405180910390f35b61033f600480360381019061033a919061222d565b6108c2565b005b61035b600480360381019061035691906121c8565b6108f6565b60405161036891906126bb565b60405180910390f35b6103796109a2565b005b610395600480360381019061039091906121c8565b610a1c565b005b6103b160048036038101906103ac91906122ce565b610a2a565b005b6103bb610a3e565b6040516103c891906126bb565b60405180910390f35b6103eb60048036038101906103e69190612114565b610a55565b6040516103f891906129f3565b60405180910390f35b61041b600480360381019061041691906121c8565b610a9e565b005b610425610b22565b005b610441600480360381019061043c9190612269565b610b9c565b60405161044e91906126a0565b60405180910390f35b610471600480360381019061046c919061222d565b610bcb565b60405161047e91906126bb565b60405180910390f35b61048f610c35565b60405161049c91906126f1565b60405180910390f35b6104ad610cc7565b6040516104ba91906126d6565b60405180910390f35b6104dd60048036038101906104d891906121c8565b610cce565b6040516104ea91906126bb565b60405180910390f35b6104fb610dc2565b60405161050891906129f3565b60405180910390f35b61052b600480360381019061052691906121c8565b610dc8565b60405161053891906126bb565b60405180910390f35b610549610de6565b60405161055691906129f3565b60405180910390f35b61057960048036038101906105749190612204565b610dec565b60405161058691906129f3565b60405180910390f35b610597610e10565b6040516105a491906129f3565b60405180910390f35b6105b5610e16565b6040516105c291906126d6565b60405180910390f35b6105e560048036038101906105e0919061222d565b610e3a565b005b61060160048036038101906105fc919061213d565b610e6e565b60405161060e91906129f3565b60405180910390f35b61061f610ef5565b60405161062c91906126d6565b60405180910390f35b60007f5a05180f000000000000000000000000000000000000000000000000000000007bffffffffffffffffffffffffffffffffffffffffffffffffffffffff1916827bffffffffffffffffffffffffffffffffffffffffffffffffffffffff191614806106a857506106a782610fb4565b5b9050919050565b6060600580546106be90612b8d565b80601f01602080910402602001604051908101604052809291908181526020018280546106ea90612b8d565b80156107375780601f1061070c57610100808354040283529160200191610737565b820191906000526020600020905b81548152906001019060200180831161071a57829003601f168201915b5050505050905090565b600061075561074e61102e565b8484611036565b6001905092915050565b6000600454905090565b6000610776848484611201565b6000600360008673ffffffffffffffffffffffffffffffffffffffff1673ffffffffffffffffffffffffffffffffffffffff16815260200190815260200160002060006107c161102e565b73ffffffffffffffffffffffffffffffffffffffff1673ffffffffffffffffffffffffffffffffffffffff16815260200190815260200160002054905082811015610841576040517f08c379a000000000000000000000000000000000000000000000000000000000815260040161083890612893565b60405180910390fd5b61085e8561084d61102e565b85846108599190612a9b565b611036565b60019150509392505050565b6000806000838152602001908152602001600020600101549050919050565b6108938282611483565b6108b88160016000858152602001908152602001600020610f2790919063ffffffff16565b505050565b600090565b6108cc82826114e9565b6108f1816001600085815260200190815260200160002061156c90919063ffffffff16565b505050565b600061099861090361102e565b84846003600061091161102e565b73ffffffffffffffffffffffffffffffffffffffff1673ffffffffffffffffffffffffffffffffffffffff16815260200190815260200160002060008873ffffffffffffffffffffffffffffffffffffffff1673ffffffffffffffffffffffffffffffffffffffff168152602001908152602001600020546109939190612a45565b611036565b6001905092915050565b6109d37f65d7a28e3265b37a6474929f336521b332c1681b933f6cb9f3376673440d862a6109ce61102e565b610bcb565b610a12576040517f08c379a0000000000000000000000000000000000000000000000000000000008152600401610a09906127b3565b60405180910390fd5b610a1a61159c565b565b610a26828261163e565b5050565b610a3b610a3561102e565b8261175a565b50565b6000600760009054906101000a900460ff16905090565b6000600260008373ffffffffffffffffffffffffffffffffffffffff1673ffffffffffffffffffffffffffffffffffffffff168152602001908152602001600020549050919050565b6000610ab183610aac61102e565b610e6e565b905081811015610af6576040517f08c379a0000000000000000000000000000000000000000000000000000000008152600401610aed906128d3565b60405180910390fd5b610b1383610b0261102e565b8484610b0e9190612a9b565b611036565b610b1d838361175a565b505050565b610b537f65d7a28e3265b37a6474929f336521b332c1681b933f6cb9f3376673440d862a610b4e61102e565b610bcb565b610b92576040517f08c379a0000000000000000000000000000000000000000000000000000000008152600401610b8990612953565b60405180910390fd5b610b9a611930565b565b6000610bc382600160008681526020019081526020016000206119d390919063ffffffff16565b905092915050565b600080600084815260200190815260200160002060000160008373ffffffffffffffffffffffffffffffffffffffff1673ffffffffffffffffffffffffffffffffffffffff16815260200190815260200160002060009054906101000a900460ff16905092915050565b606060068054610c4490612b8d565b80601f0160208091040260200160405190810160405280929190818152602001828054610c7090612b8d565b8015610cbd5780601f10610c9257610100808354040283529160200191610cbd565b820191906000526020600020905b815481529060010190602001808311610ca057829003601f168201915b5050505050905090565b6000801b81565b60008060036000610cdd61102e565b73ffffffffffffffffffffffffffffffffffffffff1673ffffffffffffffffffffffffffffffffffffffff16815260200190815260200160002060008573ffffffffffffffffffffffffffffffffffffffff1673ffffffffffffffffffffffffffffffffffffffff16815260200190815260200160002054905082811015610d9a576040517f08c379a0000000000000000000000000000000000000000000000000000000008152600401610d9190612973565b60405180910390fd5b610db7610da561102e565b858584610db29190612a9b565b611036565b600191505092915050565b60095481565b6000610ddc610dd561102e565b8484611201565b6001905092915050565b60085481565b6000610e09600160008481526020019081526020016000206119ed565b9050919050565b600a5481565b7f9f2df0fed2c77648de5860a4cc508cd0818c85b8b8a1ab4ceeef8d981c8956a681565b610e448282611a02565b610e69816001600085815260200190815260200160002061156c90919063ffffffff16565b505050565b6000600360008473ffffffffffffffffffffffffffffffffffffffff1673ffffffffffffffffffffffffffffffffffffffff16815260200190815260200160002060008373ffffffffffffffffffffffffffffffffffffffff1673ffffffffffffffffffffffffffffffffffffffff16815260200190815260200160002054905092915050565b7f65d7a28e3265b37a6474929f336521b332c1681b933f6cb9f3376673440d862a81565b610f238282611a68565b5050565b6000610f4f836000018373ffffffffffffffffffffffffffffffffffffffff1660001b611b48565b905092915050565b610f62838383610faf565b610f6a610a3e565b15610faa576040517f08c379a0000000000000000000000000000000000000000000000000000000008152600401610fa1906129d3565b60405180910390fd5b505050565b505050565b60007f7965db0b000000000000000000000000000000000000000000000000000000007bffffffffffffffffffffffffffffffffffffffffffffffffffffffff1916827bffffffffffffffffffffffffffffffffffffffffffffffffffffffff19161480611027575061102682611bb8565b5b9050919050565b600033905090565b600073ffffffffffffffffffffffffffffffffffffffff168373ffffffffffffffffffffffffffffffffffffffff1614156110a6576040517f08c379a000000000000000000000000000000000000000000000000000000000815260040161109d90612933565b60405180910390fd5b600073ffffffffffffffffffffffffffffffffffffffff168273ffffffffffffffffffffffffffffffffffffffff161415611116576040517f08c379a000000000000000000000000000000000000000000000000000000000815260040161110d906127f3565b60405180910390fd5b80600360008573ffffffffffffffffffffffffffffffffffffffff1673ffffffffffffffffffffffffffffffffffffffff16815260200190815260200160002060008473ffffffffffffffffffffffffffffffffffffffff1673ffffffffffffffffffffffffffffffffffffffff168152602001908152602001600020819055508173ffffffffffffffffffffffffffffffffffffffff168373ffffffffffffffffffffffffffffffffffffffff167f8c5be1e5ebec7d5bd14f71427d1e84f3dd0314c0f7b2291e5b200ac8c7c3b925836040516111f491906129f3565b60405180910390a3505050565b600073ffffffffffffffffffffffffffffffffffffffff168373ffffffffffffffffffffffffffffffffffffffff161415611271576040517f08c379a000000000000000000000000000000000000000000000000000000000815260040161126890612913565b60405180910390fd5b600073ffffffffffffffffffffffffffffffffffffffff168273ffffffffffffffffffffffffffffffffffffffff1614156112e1576040517f08c379a00000000000000000000000000000000000000000000000000000000081526004016112d890612733565b60405180910390fd5b6112ec838383611c22565b6000600260008573ffffffffffffffffffffffffffffffffffffffff1673ffffffffffffffffffffffffffffffffffffffff16815260200190815260200160002054905081811015611373576040517f08c379a000000000000000000000000000000000000000000000000000000000815260040161136a90612833565b60405180910390fd5b818161137f9190612a9b565b600260008673ffffffffffffffffffffffffffffffffffffffff1673ffffffffffffffffffffffffffffffffffffffff1681526020019081526020016000208190555081600260008573ffffffffffffffffffffffffffffffffffffffff1673ffffffffffffffffffffffffffffffffffffffff16815260200190815260200160002060008282546114119190612a45565b925050819055508273ffffffffffffffffffffffffffffffffffffffff168473ffffffffffffffffffffffffffffffffffffffff167fddf252ad1be2c89b69c2b068fc378daa952ba7f163c4a11628f55a4df523b3ef8460405161147591906129f3565b60405180910390a350505050565b61149c61148f8361086a565b61149761102e565b610bcb565b6114db576040517f08c379a00000000000000000000000000000000000000000000000000000000081526004016114d290612753565b60405180910390fd5b6114e58282611a68565b5050565b6114f161102e565b73ffffffffffffffffffffffffffffffffffffffff168173ffffffffffffffffffffffffffffffffffffffff161461155e576040517f08c379a000000000000000000000000000000000000000000000000000000000815260040161155590612993565b60405180910390fd5b6115688282611c32565b5050565b6000611594836000018373ffffffffffffffffffffffffffffffffffffffff1660001b611d13565b905092915050565b6115a4610a3e565b6115e3576040517f08c379a00000000000000000000000000000000000000000000000000000000081526004016115da90612773565b60405180910390fd5b6000600760006101000a81548160ff0219169083151502179055507f5db9ee0a495bf2e6ff9c91a7834c1ba4fdd244a5e8aa4e537bd38aeae4b073aa61162761102e565b60405161163491906126a0565b60405180910390a1565b61166f7f9f2df0fed2c77648de5860a4cc508cd0818c85b8b8a1ab4ceeef8d981c8956a661166a61102e565b610bcb565b6116ae576040517f08c379a00000000000000000000000000000000000000000000000000000000081526004016116a5906128b3565b60405180910390fd5b6008548111156116f3576040517f08c379a00000000000000000000000000000000000000000000000000000000081526004016116ea90612813565b60405180910390fd5b600954600a54426117049190612a9b565b1015611745576040517f08c379a000000000000000000000000000000000000000000000000000000000815260040161173c906127d3565b60405180910390fd5b42600a819055506117568282611e9d565b5050565b600073ffffffffffffffffffffffffffffffffffffffff168273ffffffffffffffffffffffffffffffffffffffff1614156117ca576040517f08c379a00000000000000000000000000000000000000000000000000000000081526004016117c1906128f3565b60405180910390fd5b6117d682600083611c22565b6000600260008473ffffffffffffffffffffffffffffffffffffffff1673ffffffffffffffffffffffffffffffffffffffff1681526020019081526020016000205490508181101561185d576040517f08c379a000000000000000000000000000000000000000000000000000000000815260040161185490612793565b60405180910390fd5b81816118699190612a9b565b600260008573ffffffffffffffffffffffffffffffffffffffff1673ffffffffffffffffffffffffffffffffffffffff1681526020019081526020016000208190555081600460008282546118be9190612a9b565b92505081905550600073ffffffffffffffffffffffffffffffffffffffff168373ffffffffffffffffffffffffffffffffffffffff167fddf252ad1be2c89b69c2b068fc378daa952ba7f163c4a11628f55a4df523b3ef8460405161192391906129f3565b60405180910390a3505050565b611938610a3e565b15611978576040517f08c379a000000000000000000000000000000000000000000000000000000000815260040161196f90612873565b60405180910390fd5b6001600760006101000a81548160ff0219169083151502179055507f62e78cea01bee320cd4e420270b5ea74000d11b0c9f74754ebdbfc544b05a2586119bc61102e565b6040516119c991906126a0565b60405180910390a1565b60006119e28360000183611ff2565b60001c905092915050565b60006119fb8260000161208c565b9050919050565b611a1b611a0e8361086a565b611a1661102e565b610bcb565b611a5a576040517f08c379a0000000000000000000000000000000000000000000000000000000008152600401611a5190612853565b60405180910390fd5b611a648282611c32565b5050565b611a728282610bcb565b611b4457600160008084815260200190815260200160002060000160008373ffffffffffffffffffffffffffffffffffffffff1673ffffffffffffffffffffffffffffffffffffffff16815260200190815260200160002060006101000a81548160ff021916908315150217905550611ae961102e565b73ffffffffffffffffffffffffffffffffffffffff168173ffffffffffffffffffffffffffffffffffffffff16837f2f8788117e7eff1d82e926ec794901d17c78024a50270940304540a733656f0d60405160405180910390a45b5050565b6000611b54838361209d565b611bad578260000182908060018154018082558091505060019003906000526020600020016000909190919091505582600001805490508360010160008481526020019081526020016000208190555060019050611bb2565b600090505b92915050565b60007f01ffc9a7000000000000000000000000000000000000000000000000000000007bffffffffffffffffffffffffffffffffffffffffffffffffffffffff1916827bffffffffffffffffffffffffffffffffffffffffffffffffffffffff1916149050919050565b611c2d838383610f57565b505050565b611c3c8282610bcb565b15611d0f57600080600084815260200190815260200160002060000160008373ffffffffffffffffffffffffffffffffffffffff1673ffffffffffffffffffffffffffffffffffffffff16815260200190815260200160002060006101000a81548160ff021916908315150217905550611cb461102e565b73ffffffffffffffffffffffffffffffffffffffff168173ffffffffffffffffffffffffffffffffffffffff16837ff6391f5c32d9c69d2a47ea670b442974b53935d1edc7fd64eb21e047a839171b60405160405180910390a45b5050565b60008083600101600084815260200190815260200160002054905060008114611e91576000600182611d459190612a9b565b9050600060018660000180549050611d5d9190612a9b565b90506000866000018281548110611d9d577f4e487b7100000000000000000000000000000000000000000000000000000000600052603260045260246000fd5b9060005260206000200154905080876000018481548110611de7577f4e487b7100000000000000000000000000000000000000000000000000000000600052603260045260246000fd5b9060005260206000200181905550600183611e029190612a45565b8760010160008381526020019081526020016000208190555086600001805480611e55577f4e487b7100000000000000000000000000000000000000000000000000000000600052603160045260246000fd5b60019003818190600052602060002001600090559055866001016000878152602001908152602001600020600090556001945050505050611e97565b60009150505b92915050565b600073ffffffffffffffffffffffffffffffffffffffff168273ffffffffffffffffffffffffffffffffffffffff161415611f0d576040517f08c379a0000000000000000000000000000000000000000000000000000000008152600401611f04906129b3565b60405180910390fd5b611f1960008383611c22565b8060046000828254611f2b9190612a45565b9250508190555080600260008473ffffffffffffffffffffffffffffffffffffffff1673ffffffffffffffffffffffffffffffffffffffff1681526020019081526020016000206000828254611f819190612a45565b925050819055508173ffffffffffffffffffffffffffffffffffffffff16600073ffffffffffffffffffffffffffffffffffffffff167fddf252ad1be2c89b69c2b068fc378daa952ba7f163c4a11628f55a4df523b3ef83604051611fe691906129f3565b60405180910390a35050565b60008183600001805490501161203d576040517f08c379a000000000000000000000000000000000000000000000000000000000815260040161203490612713565b60405180910390fd5b826000018281548110612079577f4e487b7100000000000000000000000000000000000000000000000000000000600052603260045260246000fd5b9060005260206000200154905092915050565b600081600001805490509050919050565b600080836001016000848152602001908152602001600020541415905092915050565b6000813590506120cf816132af565b92915050565b6000813590506120e4816132c6565b92915050565b6000813590506120f9816132dd565b92915050565b60008135905061210e816132f4565b92915050565b60006020828403121561212657600080fd5b6000612134848285016120c0565b91505092915050565b6000806040838503121561215057600080fd5b600061215e858286016120c0565b925050602061216f858286016120c0565b9150509250929050565b60008060006060848603121561218e57600080fd5b600061219c868287016120c0565b93505060206121ad868287016120c0565b92505060406121be868287016120ff565b9150509250925092565b600080604083850312156121db57600080fd5b60006121e9858286016120c0565b92505060206121fa858286016120ff565b9150509250929050565b60006020828403121561221657600080fd5b6000612224848285016120d5565b91505092915050565b6000806040838503121561224057600080fd5b600061224e858286016120d5565b925050602061225f858286016120c0565b9150509250929050565b6000806040838503121561227c57600080fd5b600061228a858286016120d5565b925050602061229b858286016120ff565b9150509250929050565b6000602082840312156122b757600080fd5b60006122c5848285016120ea565b91505092915050565b6000602082840312156122e057600080fd5b60006122ee848285016120ff565b91505092915050565b61230081612acf565b82525050565b61230f81612ae1565b82525050565b61231e81612aed565b82525050565b600061232f82612a29565b6123398185612a34565b9350612349818560208601612b5a565b61235281612c1d565b840191505092915050565b600061236a602283612a34565b915061237582612c2e565b604082019050919050565b600061238d602383612a34565b915061239882612c7d565b604082019050919050565b60006123b0602f83612a34565b91506123bb82612ccc565b604082019050919050565b60006123d3601483612a34565b91506123de82612d1b565b602082019050919050565b60006123f6602283612a34565b915061240182612d44565b604082019050919050565b6000612419603983612a34565b915061242482612d93565b604082019050919050565b600061243c602f83612a34565b915061244782612de2565b604082019050919050565b600061245f602283612a34565b915061246a82612e31565b604082019050919050565b6000612482601f83612a34565b915061248d82612e80565b602082019050919050565b60006124a5602683612a34565b91506124b082612ea9565b604082019050919050565b60006124c8603083612a34565b91506124d382612ef8565b604082019050919050565b60006124eb601083612a34565b91506124f682612f47565b602082019050919050565b600061250e602883612a34565b915061251982612f70565b604082019050919050565b6000612531603683612a34565b915061253c82612fbf565b604082019050919050565b6000612554602483612a34565b915061255f8261300e565b604082019050919050565b6000612577602183612a34565b91506125828261305d565b604082019050919050565b600061259a602583612a34565b91506125a5826130ac565b604082019050919050565b60006125bd602483612a34565b91506125c8826130fb565b604082019050919050565b60006125e0603783612a34565b91506125eb8261314a565b604082019050919050565b6000612603602583612a34565b915061260e82613199565b604082019050919050565b6000612626602f83612a34565b9150612631826131e8565b604082019050919050565b6000612649601f83612a34565b915061265482613237565b602082019050919050565b600061266c602a83612a34565b915061267782613260565b604082019050919050565b61268b81612b43565b82525050565b61269a81612b4d565b82525050565b60006020820190506126b560008301846122f7565b92915050565b60006020820190506126d06000830184612306565b92915050565b60006020820190506126eb6000830184612315565b92915050565b6000602082019050818103600083015261270b8184612324565b905092915050565b6000602082019050818103600083015261272c8161235d565b9050919050565b6000602082019050818103600083015261274c81612380565b9050919050565b6000602082019050818103600083015261276c816123a3565b9050919050565b6000602082019050818103600083015261278c816123c6565b9050919050565b600060208201905081810360008301526127ac816123e9565b9050919050565b600060208201905081810360008301526127cc8161240c565b9050919050565b600060208201905081810360008301526127ec8161242f565b9050919050565b6000602082019050818103600083015261280c81612452565b9050919050565b6000602082019050818103600083015261282c81612475565b9050919050565b6000602082019050818103600083015261284c81612498565b9050919050565b6000602082019050818103600083015261286c816124bb565b9050919050565b6000602082019050818103600083015261288c816124de565b9050919050565b600060208201905081810360008301526128ac81612501565b9050919050565b600060208201905081810360008301526128cc81612524565b9050919050565b600060208201905081810360008301526128ec81612547565b9050919050565b6000602082019050818103600083015261290c8161256a565b9050919050565b6000602082019050818103600083015261292c8161258d565b9050919050565b6000602082019050818103600083015261294c816125b0565b9050919050565b6000602082019050818103600083015261296c816125d3565b9050919050565b6000602082019050818103600083015261298c816125f6565b9050919050565b600060208201905081810360008301526129ac81612619565b9050919050565b600060208201905081810360008301526129cc8161263c565b9050919050565b600060208201905081810360008301526129ec8161265f565b9050919050565b6000602082019050612a086000830184612682565b92915050565b6000602082019050612a236000830184612691565b92915050565b600081519050919050565b600082825260208201905092915050565b6000612a5082612b43565b9150612a5b83612b43565b9250827fffffffffffffffffffffffffffffffffffffffffffffffffffffffffffffffff03821115612a9057612a8f612bbf565b5b828201905092915050565b6000612aa682612b43565b9150612ab183612b43565b925082821015612ac457612ac3612bbf565b5b828203905092915050565b6000612ada82612b23565b9050919050565b60008115159050919050565b6000819050919050565b60007fffffffff0000000000000000000000000000000000000000000000000000000082169050919050565b600073ffffffffffffffffffffffffffffffffffffffff82169050919050565b6000819050919050565b600060ff82169050919050565b60005b83811015612b78578082015181840152602081019050612b5d565b83811115612b87576000848401525b50505050565b60006002820490506001821680612ba557607f821691505b60208210811415612bb957612bb8612bee565b5b50919050565b7f4e487b7100000000000000000000000000000000000000000000000000000000600052601160045260246000fd5b7f4e487b7100000000000000000000000000000000000000000000000000000000600052602260045260246000fd5b6000601f19601f8301169050919050565b7f456e756d657261626c655365743a20696e646578206f7574206f6620626f756e60008201527f6473000000000000000000000000000000000000000000000000000000000000602082015250565b7f45524332303a207472616e7366657220746f20746865207a65726f206164647260008201527f6573730000000000000000000000000000000000000000000000000000000000602082015250565b7f416363657373436f6e74726f6c3a2073656e646572206d75737420626520616e60008201527f2061646d696e20746f206772616e740000000000000000000000000000000000602082015250565b7f5061757361626c653a206e6f7420706175736564000000000000000000000000600082015250565b7f45524332303a206275726e20616d6f756e7420657863656564732062616c616e60008201527f6365000000000000000000000000000000000000000000000000000000000000602082015250565b7f45524332305072657365744d696e7465725061757365723a206d75737420686160008201527f76652070617573657220726f6c6520746f20756e706175736500000000000000602082015250565b7f43616e6e6f7420696e6372656173652074686520737570706c7920776974686f60008201527f757420636f6f6c696e6720646f776e0000000000000000000000000000000000602082015250565b7f45524332303a20617070726f766520746f20746865207a65726f20616464726560008201527f7373000000000000000000000000000000000000000000000000000000000000602082015250565b7f43616e6e6f74206d696e74206d6f7265207468616e20616c6c6f77616e636500600082015250565b7f45524332303a207472616e7366657220616d6f756e742065786365656473206260008201527f616c616e63650000000000000000000000000000000000000000000000000000602082015250565b7f416363657373436f6e74726f6c3a2073656e646572206d75737420626520616e60008201527f2061646d696e20746f207265766f6b6500000000000000000000000000000000602082015250565b7f5061757361626c653a2070617573656400000000000000000000000000000000600082015250565b7f45524332303a207472616e7366657220616d6f756e742065786365656473206160008201527f6c6c6f77616e6365000000000000000000000000000000000000000000000000602082015250565b7f45524332305072657365744d696e7465725061757365723a206d75737420686160008201527f7665206d696e74657220726f6c6520746f206d696e7400000000000000000000602082015250565b7f45524332303a206275726e20616d6f756e74206578636565647320616c6c6f7760008201527f616e636500000000000000000000000000000000000000000000000000000000602082015250565b7f45524332303a206275726e2066726f6d20746865207a65726f2061646472657360008201527f7300000000000000000000000000000000000000000000000000000000000000602082015250565b7f45524332303a207472616e736665722066726f6d20746865207a65726f20616460008201527f6472657373000000000000000000000000000000000000000000000000000000602082015250565b7f45524332303a20617070726f76652066726f6d20746865207a65726f2061646460008201527f7265737300000000000000000000000000000000000000000000000000000000602082015250565b7f45524332305072657365744d696e7465725061757365723a206d75737420686160008201527f76652070617573657220726f6c6520746f207061757365000000000000000000602082015250565b7f45524332303a2064656372656173656420616c6c6f77616e63652062656c6f7760008201527f207a65726f000000000000000000000000000000000000000000000000000000602082015250565b7f416363657373436f6e74726f6c3a2063616e206f6e6c792072656e6f756e636560008201527f20726f6c657320666f722073656c660000000000000000000000000000000000602082015250565b7f45524332303a206d696e7420746f20746865207a65726f206164647265737300600082015250565b7f45524332305061757361626c653a20746f6b656e207472616e7366657220776860008201527f696c652070617573656400000000000000000000000000000000000000000000602082015250565b6132b881612acf565b81146132c357600080fd5b50565b6132cf81612aed565b81146132da57600080fd5b50565b6132e681612af7565b81146132f157600080fd5b50565b6132fd81612b43565b811461330857600080fd5b5056fea2646970667358221220e32a1aa207efd5fc5998192f443c0753890831a6e0cf953e26ed38ccdfc5f00364736f6c63430008030033",
  "immutableReferences": {},
  "source": "// ----------------------   Nobel Main Smart Contract  -----------------------------------  //\r\n// |    1) This is the point of contact for a user of Nobel Litterati App                |  // \r\n// |    @func createLitter - Creates NFT and send Reward to user                         |  //\r\n// |    @func getLittersContractAddress - Returns OpenNFT contract address               |  //\r\n// |    @func getNobelsContractAddress - Returns Nobel Token Contract address            |  //\r\n// |    @func getBalanceOfLitter - Returns Litter NFT Balance of user                    |  //\r\n// |    @func getBalanceOfNobels - Returns NBT Token Balance of user                     |  //\r\n// ---------------------------------------------------------------------------------------  //\r\n\r\npragma solidity ^0.8.0;\r\n\r\nimport './OpenNFT.sol';\r\nimport './NobelToken.sol';\r\n\r\ncontract NobelMain is Ownable {\r\n\r\n    mapping(address => string) public user_address_to_user_name;\r\n    mapping(address => uint8) public isRegistered;\r\n    \r\n    // Open NFT contract Instance\r\n    OpenNFT litters;\r\n\r\n    // Nobel Token Contract Instance\r\n    NobelToken nobels;\r\n    \r\n    /*\r\n        Constructor\r\n        @params - type: address - _litter - address of OpenNft Smart Contract\r\n        @params - type: uint - _initial_supply - Initial supply of ERC20 based NBT token\r\n        @params - type: uint - _minting_allowance_per_call - Minting allowance per call for NBT Token\r\n        @params - type: uint - _cool_down_time_per_mint - Coold Down Time between minting\r\n\r\n        Stores Open NFT contract address\r\n        Deploys NBT Token.\r\n\r\n     */\r\n    \r\n    constructor (\r\n        address _litter,\r\n        uint _initial_supply,\r\n        uint _minting_allowance_per_call,\r\n        uint _cool_down_time_per_mint\r\n        ) public {\r\n        litters = OpenNFT(_litter);\r\n        nobels = new NobelToken(_initial_supply, _minting_allowance_per_call, _cool_down_time_per_mint);\r\n    }\r\n\r\n    function registerUser(string memory _user_name) public {\r\n        require(isRegistered[msg.sender]!=1, 'User already registered');\r\n        user_address_to_user_name[msg.sender] = _user_name;\r\n        isRegistered[msg.sender] = 1;\r\n    }\r\n\r\n    /*\r\n        @func createNobelLitter\r\n        @params - type: string - _litterUri - Hash of Image uploaded on IPFS\r\n        @params - type: string - _caption - Litter caption given by user\r\n\r\n        Calls createNFT function from Open NFT contract, to create NFT and stores returned value in @var reward\r\n        Transfers reward uint of NBT token to caller\r\n    */\r\n\r\n    function createNobelLitter(string memory _litterUri, string memory _caption) public {\r\n        require(isRegistered[msg.sender]!=0, 'User not Registered');\r\n        uint reward = litters.createNFT(msg.sender, _litterUri, _caption);\r\n        nobels.transfer(msg.sender, reward);\r\n    }\r\n\r\n    /*\r\n        @func getLittersContractAddress\r\n        returns the address of Open NFT Smart Contract\r\n     */\r\n    \r\n    function getLittersContractAddress() public view returns(address litter_){\r\n        return address(litters);\r\n    }\r\n\r\n    /*\r\n        @func getNobelsContractAddress\r\n        returns the address of Nobel Token or NBT Smart Contract\r\n     */\r\n    \r\n    function getNobelsContractAddress() public view returns(address nobel_){\r\n        return address(nobels);\r\n    }\r\n    \r\n    /*\r\n        @func getBalanceOfLitter\r\n        @params - type: address - address whose balance is requested\r\n        return Open NFT token Balance or Litter Balance\r\n\r\n     */\r\n\r\n    function getBalanceOfLitter(address _checker) public view returns(uint balance_){\r\n        return litters.balanceOf(_checker);\r\n    }\r\n\r\n    /*\r\n        @func getBalanceOfNobels\r\n        @params - type: address - address whose balance is requested\r\n        return Nobel Token token Balance or NBT Balance\r\n\r\n     */\r\n    \r\n    function getBalanceOfNobels(address _checker) public view returns(uint balance_){\r\n        return nobels.balanceOf(_checker);\r\n    }\r\n\r\n    fallback () external {\r\n        revert();\r\n    }\r\n    \r\n}",
  "sourcePath": "E:/Projects/BlockchainBootcamp/open-nft-marketplace/contracts/NobelMain.sol",
  "compiler": {
    "name": "solc",
    "version": "0.8.3+commit.8d00100c.Emscripten.clang"
  },
  "schemaVersion": "3.3.4",
  "updatedAt": "2021-04-08T13:02:25.879Z",
  "devdoc": {
    "kind": "dev",
    "methods": {
      "owner()": {
        "details": "Returns the address of the current owner."
      },
      "renounceOwnership()": {
        "details": "Leaves the contract without owner. It will not be possible to call `onlyOwner` functions anymore. Can only be called by the current owner. NOTE: Renouncing ownership will leave the contract without an owner, thereby removing any functionality that is only available to the owner."
      },
      "transferOwnership(address)": {
        "details": "Transfers ownership of the contract to a new account (`newOwner`). Can only be called by the current owner."
      }
    },
    "version": 1
  },
  "userdoc": {
    "kind": "user",
    "methods": {},
    "version": 1
  }
}